{
  "contractName": "HelperInstitution",
  "abi": [
    {
      "inputs": [
        {
          "internalType": "address",
          "name": "_personInNeed",
          "type": "address"
        }
      ],
      "payable": false,
      "stateMutability": "nonpayable",
      "type": "constructor"
    },
    {
      "constant": true,
      "inputs": [],
      "name": "owner",
      "outputs": [
        {
          "internalType": "address",
          "name": "",
          "type": "address"
        }
      ],
      "payable": false,
      "stateMutability": "view",
      "type": "function"
    },
    {
      "constant": true,
      "inputs": [],
      "name": "personInNeed",
      "outputs": [
        {
          "internalType": "address",
          "name": "",
          "type": "address"
        }
      ],
      "payable": false,
      "stateMutability": "view",
      "type": "function"
    }
  ],
  "bytecode": "0x608060405234801561001057600080fd5b5060405161025e38038061025e8339818101604052602081101561003357600080fd5b8101908080519060200190929190505050600073ffffffffffffffffffffffffffffffffffffffff168173ffffffffffffffffffffffffffffffffffffffff16141561007e57600080fd5b33600160006101000a81548173ffffffffffffffffffffffffffffffffffffffff021916908373ffffffffffffffffffffffffffffffffffffffff160217905550806000806101000a81548173ffffffffffffffffffffffffffffffffffffffff021916908373ffffffffffffffffffffffffffffffffffffffff1602179055505061014f8061010f6000396000f3fe608060405234801561001057600080fd5b50600436106100365760003560e01c806335b80d121461003b5780638da5cb5b14610085575b600080fd5b6100436100cf565b604051808273ffffffffffffffffffffffffffffffffffffffff1673ffffffffffffffffffffffffffffffffffffffff16815260200191505060405180910390f35b61008d6100f4565b604051808273ffffffffffffffffffffffffffffffffffffffff1673ffffffffffffffffffffffffffffffffffffffff16815260200191505060405180910390f35b6000809054906101000a900473ffffffffffffffffffffffffffffffffffffffff1681565b600160009054906101000a900473ffffffffffffffffffffffffffffffffffffffff168156fea265627a7a723158205711a245531602ed750bf3fe87fb0afb09c486bf8e0debe06ac0743931d8736864736f6c63430005100032",
  "source": "// SPDX-License-Identifier: MIT\npragma solidity >=0.4.22 <0.8.0;\n/* Contract (placeholder) to manage Machu Picchu helper institution\n*/\ncontract HelperInstitution {\n    address public personInNeed;\n    address public owner;\n\n    constructor (address _personInNeed) public {\n        require(_personInNeed != address(0x0));\n        owner = msg.sender;\n        personInNeed = _personInNeed;\n    }\n}\n\n/* \nin migrations/2_deploy_contracts.js prepare argument to deploy the constructor\nconst HelperInstitution = artifacts.require('./HelperInstitution.sol')\n\nmodule.exports = (deployer, network, accounts) => {\n  const userAddress = accounts[3];\n  deployer.deploy(HelperInstitution, userAddress)\n}\n*/\n",
  "sourcePath": "/Users/rajanpaulsarella/Documents/workspace/practice/celo-org/celo-dappkit/contracts/DraftHelperInstitution.sol",
  "compiler": {
    "name": "solc",
    "version": "0.5.16+commit.9c3226ce.Emscripten.clang"
  },
  "schemaVersion": "3.3.3",
  "updatedAt": "2021-02-10T06:34:21.853Z",
  "devdoc": {
    "methods": {}
  },
  "userdoc": {
    "methods": {}
  }
}